:100000006F00C02113000000130000001300000067
:100010001300000013000000130000001300000094
:100020001300000013000000130000001300000084
:08003000130000007300100032
:100038000000000000000000BA0E0000BE0E000024
:1000480000000000B40100000000000000000000F3
:10005800B6010000B8010000000000000000000028
:100068003A0D000000000000BC0100000000000084
:10007800BE010000C0010000C2010000C401000070
:10008800C6010000C8010000CA010000CC01000040
:10009800760D0000D0010000D2010000D40100005C
:1000A800D6010000D8010000DA010000DC010000E0
:1000B800DE010000E0010000E2010000E4010000B0
:1000C800E6010000E8010000EA010000EC01000080
:1000D800EE010000F0010000F2010000F401000050
:1000E800480D0000540D0000660D0000FC010000E2
:1000F800FE010000000200000202000004020000ED
:1001080006020000880D00000A0200000C02000030
:100118000E0200001002000012020000140200008B
:1001280016020000180200001A0200000000000079
:080138000000000000000000BF
:10014000397101436EC619A0397141536AC866CA34
:1001500062CC5ECE19A0397101535AD056D252D416
:100160004ED64AD826DA22DC06DE3301614082828E
:1001700041114AC026C222C406C68282B24D410144
:10018000024D924C224CB24B4101024B924A224A00
:10019000B2494101024992442244B2404101828065
:1001A0002A8311C62300B3007D16050365FE8280F5
:1001B00001A001A001A001A001A001A001A001A037
:1001C00001A001A001A001A001A001A001A001A027
:1001D00001A001A001A001A001A001A001A001A017
:1001E00001A001A001A001A001A001A001A001A007
:1001F00001A001A001A001A001A001A001A001A0F7
:1002000001A001A001A001A001A001A001A001A0E6
:1002100001A001A001A001A001A001A09701002060
:1002200093814165175100201301C1DD174500007E
:1002300013054570970500209385C5DC13868182E0
:1002400063FAC5008322050023A05500110591051E
:10025000E3EAC5FE13858182938501886377B50043
:10026000232005001105E36DB5FEFD42739002BC2D
:100270009D42739042809302800873A002309702DF
:1002800000009382A2DB93E2320073905230EF00C1
:10029000F04997120000938202C3739012347300E6
:1002A000203058410C415045B70701409387074023
:1002B0003E9793C6F5FF39C29043758E90C3D043E5
:1002C000F18ED4C31443CD8E14C318419047934686
:1002D000F7FF758E90C7D047F18ED4C714454146BD
:1002E0006399C6009447D98E94C7D447558FD8C711
:1002F0008280B6979443558F98C382801C43F58FB4
:100300001CC38280B707014093870740C8CB828017
:100310009C4513F7070113F8F70001C7D84133686C
:10032000E80037270240145B3707000F758F45EB55
:1003300085462384D182371701406315E5009A2151
:1003400035839AA18E2113F7F50F31C318418146E9
:10035000054E930E80023D4F930F800421433316C8
:10036000DE00B3F8C500631016036392D70950C9C5
:1003700013962600B318CF0093C8F8FF33F7E800B0
:100380003316C800518F8506E39B66FC18C113071E
:10039000F00F6375B70454410146054E930E800279
:1003A000130F80042143130786003317EE00B3F8C0
:1003B000E500631117036390D70558C99318260009
:1003C0003D47331717011347F7FFF98EB31818018C
:1003D000B3E6D8000506E31866FC54C182803717DF
:1003E0000140E311E5F603C7818229DF89BFE3916C
:1003F000F7F910C9B5BFE393E7FD18C9C1B7B70650
:10040000300013560501131705013378D5003D8AD6
:100410004183B707014063510502DC4F6317D806DB
:1004200041068D46B396C60093C6F6FFF58FF1E9F7
:10043000370701405CCF8280D443B727024083A8AE
:100440000703B707000FB3F7170189EB93D716001F
:10045000F978CE06B3F71701CD82DD8EB7073000ED
:100460006314F806370600F17D1637080140B3F72C
:10047000C60083264800F18E2322D800BDCD5581C9
:1004800012053315A700C98F8DA8B7061000E98E95
:1004900085C28D46B396C60093C6F6FFF58FC9D9BF
:1004A00055811375F53F12053315A700C98F49B75C
:1004B00055811375F53F12053317A7009346F7FFD3
:1004C000F58FBDD5D98FADB7B7071000E98F99CBA0
:1004D0008D47B397C70093C7F7FFF58FB706000F97
:1004E000D58F69BF558112053315A7009347F5FFD6
:1004F000F58F3707000FD98FD9F5370701405CC357
:10050000828055811375F53F12053317A7005DBF33
:1005100093F635003707014093F5C50F2E97104726
:100520008A06BD47B397D70093C7F7FFF18F1CC763
:100530001C473315D5005D8D08C7828083A6C18214
:10054000182181E63C21920729A883A6C18205468D
:10055000639FC6023C21103192076314D60093E7D3
:1005600007F8B7E600E093F7F70FBA962380F64056
:100570008546935757003397E6005441ADC29387A1
:1005800007048A07B7E600E0B69798C3828083A580
:10059000C18289466390D50214313C216365D6003F
:1005A0008A06B6974DB7F9168A06B69793F7F70FEE
:1005B000920775B703A6C1828D46631BD60014311E
:1005C0003C216364D6008606E9BFF1168606F1BFBA
:1005D00083A6C1829147E39DF6F81C31ADB793879E
:1005E000070645B7371702405C43A146B18B6392BB
:1005F000D70A5C435843C166C983BD8B758F890791
:10060000C5466393D700C94701EF37470240032728
:100610000780418B09CF37177A001307072021A8DD
:10062000371702405843B7060200758F6DD737174A
:100630003D0013070790B387E7021CC1371602403D
:10064000544237070020130707009182BD8ABA96EB
:100650009422B3D7D7005CC15442A1829D8ABA9636
:100660009422B3D6D70014C55442AD829D8A3697E2
:100670001823B706002093860607B3D7E7005CC5AA
:10068000584239830D8B36971823B3D7E7021CC91C
:100690008280B7177A009387072045B799C5371727
:1006A00002401C4FC98F1CCF8280B7170240984F61
:1006B0001345F5FF798D88CF828099C537170240A1
:1006C0005C4FC98F5CCF8280B7170240D84F13456B
:1006D000F5FF798DC8CF828099C5371702405C47F6
:1006E000C98F5CC78280B7170240D8471345F5FF12
:1006F000798DC8C7828099C5371702401C4BC98FB6
:100700001CCB8280B7170240984B1345F5FF798DBB
:1007100088CB8280EFF2DFA5B7370140938707C00F
:10072000631CF50005648545130504807537814514
:10073000130504805537B9BCB70700406319F500AD
:10074000854505454D3F814505457537EDB793878F
:1007500007406318F50085450945713F8145094506
:10076000EDB7B7170040138707806318E50085458C
:100770001145513781451145C9BF938707C0E31C17
:10078000F5FA85452145853F814521457DBF1E21DF
:1007900037370140130707C0C207C1836304E5026E
:1007A000370700406300E50213070740630CE500CC
:1007B00037170040930607806306D500130707C06C
:1007C0006316E500BA2193F7F7F8D98FFA2193F76A
:1007D000F7CFC207C183D98F1EA1DE215EB59E214E
:1007E0001EB5B7370140938707C06314F5009C25F9
:1007F0001EB985475EA982801E31922103D825004B
:10080000C207C183F99BC207C1831EB11E315621A5
:100810001A2DC207C183420741831377C7F8518F4E
:100820009225F59BC20633660601D18F373601400B
:10083000130606C0C1826310C502B225DD9B03D832
:10084000E500D18FD221ED9B93F6F6CFD18FD22543
:1008500033660601D18E56A11AADFA215AB91EB1DE
:1008600082801E31E5769386F6CFC207C183BD9B99
:10087000C207C1831EB11E3152211A2D03D8850033
:10088000C207758F9621C18393F7F7FDA206558F96
:10089000B62142064207B3E606019206D58FB73667
:1008A0000140C207938606C041824183C183631E13
:1008B000D502B62593F7F7F703D8C5009206D58F72
:1008C000D621C207C183920693F7F7FBD58FFD7639
:1008D0009386F63FF18EF225C207C1833366060187
:1008E0000A06D18E13960601418252A11AADFA2151
:1008F0001ABD1EB182801E31962103D88500C20721
:10090000C18393F7F7EFC207C1831EB11E31522195
:100910005A2DC207C183420741831377C7F8558F09
:10092000B62193F7F7DF4206B3E60601A206D58F9C
:10093000B7360140C207938606C04182C183631F58
:10094000D502FD769386F67FF58FB62503D8C500D0
:10095000A206D58FD621C207C183A20693F7F7BF9F
:10096000D58FF576FD16F18EF225C207C183336669
:1009700006011206D18E13960601418252A15AAD8C
:10098000FA215ABD1EB182801E317D777D17F98F05
:100990001EB11A315E21562D65761306F6CFF18E03
:1009A000922103D88500C2072206D18E79767D1662
:1009B000718FB221C206C183336606013206518FA0
:1009C000373601404207130606C0C1824183631ACD
:1009D000C50071767D16F18FD2251A06D18FC20718
:1009E000C1835EA1FE2156AD2310F5041AB18280A9
:1009F000BA219E21D98FDA21D98FFA21D98F9A2550
:100A0000D98FBA25D98FDA25D98F2312F5048280A0
:100A1000FD575EA1231005002313050023110500D7
:100A200023040500828023100500231105002312F2
:100A300005002313050023140500231505002316C4
:100A400005002317050082802310050023110500EF
:100A500023120500231305002314050023150500A8
:100A60002316050082801E2189C593E717001EA169
:100A70008280C207C183F99BC207C183CDBF835760
:100A8000450491C52167D98F2312F5048280C607DA
:100A9000C583DDBF5E2501C6CD8F5EA5828093C56F
:100AA000F5FFED8FDDBF4EA982801E2189C593E73A
:100AB00007081EA18280C207C18393F7F7F7C20718
:100AC000C183C5BF1E2DC207C183DD9BCD8F1EAD67
:100AD00082801E2D7D771307F77FF98FA205CD8FBA
:100AE000C207C1831EAD82805E2DC207C183DD9B1C
:100AF000CD8F5EAD82801E2DC207C183ED9BCD8F51
:100B00001EAD82801E2DA205C207C18393F7F7BFD9
:100B1000CD8FC207C1831EAD82805E2DC207C18307
:100B2000ED9BCD8F5EAD82801E3105473317B70038
:100B30001347F7FFF98F3316B600D18FC207C18371
:100B40001EB182801E3111473317B7001347F7FFDC
:100B5000F98F3316B600D18FC207C1831EB18280D0
:100B600093C5F5FFC205C1810EA98280EFF24FE067
:100B70001629F577FD17FD8EFE21DA250111D58F97
:100B80001EA95625FD779387379FFD8EDE212A8487
:100B9000AE84D58F9625D58FB625D58F5EA55E29D7
:100BA000C207C18393F7F7CFD98F5EA968001D3CB8
:100BB000B7470140938707806318F404E24756243F
:100BC0006547B387E702C206C186984063D0060432
:100BD0000607930640065224B3D7E7024206418631
:100BE00033D7D702B3F7D7021207635306028E0733
:100BF00093872703B3D7D7029D8BD98FC207C183B1
:100C00001EA405616FF00FD9D24755BF0A07D1B7AF
:100C1000920793872703B3D7D702BD8BF9BF5E2511
:100C200089C50967D98F5EA5828079777D17F98F8D
:100C3000DDBF13F7F50F85471583B395B70063192B
:100C4000F7009307C500984301CE4D8F98C382806B
:100C5000894693074501E318D7FE93070501E5B7D9
:100C600093C5F5FFF98D8CC3828093F5F51F4EA1D6
:100C700082804A211375F51F82800A216D8D3335DC
:100C8000A000828093F6F50F054695822A87B31758
:100C9000B6006391C602562533F5F6001E23C2073F
:100CA000C18301C9A18105473317B700F98F3335D7
:100CB000F000828009466394C6001629F1BF5629C8
:100CC000E1BFA1818547B397B70093C7F7FFC2077C
:100CD000C1831EA18280EFF20FC837490140AE895F
:100CE000328481441309098063C5840022856FF032
:100CF000CFC9930500044A85493765DDB38799005C
:100D0000838507004A858504C205C181B93FE9BFD3
:100D1000B7060020AA8703A5460713870188AA976C
:100D200063EBE70037570020130707806365F70080
:100D300023AAF60682807D558280B52BB7F700E0A6
:100D400023A2070073002030B70700403D579AAB3D
:100D500073002030F12CB707004023980740938799
:100D6000074073002030B71700402398078093870F
:100D70000780730020308D24B70701409387074018
:100D80001147D8CB73002030011122CE37440140E7
:100D9000930550521305048026CC4ACA4EC852C649
:100DA000D5356304051013050480E13503C70183BD
:100DB000620593071700938641836185369793F701
:100DC000F70F08A3238BA1822388F18205471384A0
:100DD00041836371F70C83C74183E207E18763981E
:100DE000E704083062056185EF10306903A60181D0
:100DF00083A64181EF10B00D03A6818183A6C18136
:100E0000EF10601EEF1010618567938787BB63D377
:100E1000A7003E859307800C6354F5001305800CF2
:100E2000138A81852328AA004545EF10801A83C7BD
:100E300041830947E207E1876398E7041C300547CF
:100E4000E207E1876398E70013054004238CF184EF
:100E5000EF1020181C300947E207E1876399E7008B
:100E60001D4713055005238CE184EF1080161C30BC
:100E70000D47E207E1876399E70021471305600604
:100E8000238CE184EF10E014238A018223880182FD
:100E9000A300040003C56183EF10A0133745014090
:100EA0009305404213050580293D7244E2445249AE
:100EB000C249324A0561730020307300203073004C
:100EC0002030EFF2EFAA93878185054798A3130797
:100ED000201C98CB0947BAA3EF00207737E700E042
:100EE000E1472308F7048567938767D793E71700DF
:100EF0003CD3B147A309F70485679387A7D393E74A
:100F000017007CD737150E00EF10C002EF00207BD2
:100F1000EF00F05E0D24592CEF00D0000145EF00EA
:100F200000700545EF000071F12201A0B7170240E3
:100F30009843B706FFF81367170098C3D843758F17
:100F4000D8C39843B706F7FEFD16758F98C398432C
:100F5000B706FCFFFD16758F98C3D843B70681FF0F
:100F6000FD16758FD8C337079F0098C737470240D3
:100F700013070780144393E6060114C3D843896618
:100F8000D8C3D843558FD8C3D843B706C1FFFD1681
:100F900013670740D8C3D843758FD8C3D843B70663
:100FA0003C00558FD8C39843B7060001558F98C3AE
:100FB000B70600029843758F75DFD843B716024015
:100FC000719BD8C3D84313672700D8C32147DC429D
:100FD000B18BE39EE7FE8280B717004083D647823D
:100FE0003146C206C182239FD18293878185D84F23
:100FF0003356C70263F7C600D4539307200D63E846
:10100000D702B71700401183239207824207B70720
:1010100000402392074241832396E74223980740EA
:1010200003D7C740136717002396E740BDAD828002
:10103000EFF26F929387818598238D47631DF706A2
:1010400003C7C1831384818541E7EF003035A925AB
:101050008317240003D5E1838607504CA297D6233B
:10106000CAA39D47B387C70218502A97158F5450BB
:1010700018D08506BA9793D9370054D0232E34015F
:101080001307200D6379D7029983044C63FAA704F0
:10109000EF10707D2A894E85EF20A00983A501827B
:1010A000EF109044AA854A85EF107072635A0502CA
:1010B00099C0FD1404CC370700408357C740C207CE
:1010C000C183F99BC207C1832316F7406FF0EF8BF2
:1010D00003C7C1838547E31CF7F6EF00503785BF90
:1010E000938714001CCC9307800CE3F697FC914780
:1010F0001CA0D1B7B7F700E023A0070023A2070088
:10110000814694C70147D8C7370700208325870742
:1011100009671307077133D6E50281463D4790CB37
:10112000D4CB98C3B7E700E001572386E7400567B3
:1011300023A0E7108280EFF2AF8341118545094576
:10114000EFF0AFD7FD577C84B707002083A7870750
:1011500037871E0013070748B3D7E702370400405C
:101160004C0013050440231301002315010023162E
:101170000100FD177C82EFF08FE1130504408545E7
:10118000C5320546130504408545EFF0BF90B7E72B
:1011900000E0A3860742096723A2E71085451305EF
:1011A0000440EFF05F8C41016FE0DFFEEFE25FFC97
:1011B000411185451145EFF04FD0FD577C84B707AD
:1011C000002083A7870737871E0013070748B3D778
:1011D000E702371400404C0013050480231301007C
:1011E0002315010023160100FD177C82EFF02FDA92
:1011F000130504808545EFF0BF960546130504806E
:101200008545EFF03F89B7E700E009472387E742CC
:10121000116723A2E710854513050480EFF0BF8412
:1012200041016FE03FF73717014093070780D44330
:1012300037060030130707C0C19AD4C3D44393E6DE
:101240003600D4C393060010D4CB94439206918207
:1012500094C39443D18E94C39306000894CBD44393
:101260007D761306F60F93F6F6F0D4C3D44393E6D7
:101270000603D4C393060020D4CB1443C19A14C3ED
:10128000144393E6360014C3854614CBD443F18E41
:10129000D4C3D44393E60630D4C393060040D4CBE2
:1012A0001C4393F7F7F01CC31C4393E707031CC3CD
:1012B00089471CCB5DA9EFE21FEA938781859823BC
:1012C000A14663E1E62A9377F70F11678A071307B0
:1012D000C758BA979C43138481858287373701406A
:1012E0008357C7C0B714004093840480C207C183EA
:1012F000F99BC207C1832316F7C037070040835705
:10130000C740C207C183F99BC207C1832316F740B8
:10131000DE24C207C183F99BC207C183DEA4712604
:10132000DA309307300263FFE7229307E0151305D5
:10133000E0155CC81D29B717701723920402938724
:1013400007775CC01CC45CC4A567938707CA1CD020
:101350005CCC03C7C18323220402232C040011EBBD
:10136000EF00D003239D0182232E040089471CA097
:10137000D5AA03C7C1838547E316F7FEEF00300DFA
:10138000D5B7B717004003D74782B71701409387F7
:101390000780944783C781838982858A8607D58F92
:1013A0008316240093F7F70F4207238CF18293F5FD
:1013B00016004183CDC183C5C183D9E1CDE7930731
:1013C000C00F238CF1823716004093971600239D9F
:1013D000018223120682A2970C50D623DAA35C5016
:1013E0002E97158F544C85075CD08D47B387D70255
:1013F00018D013060680BA97898361475CCCB3D7AF
:10140000E7025A32E36FF7FE83C7C183BDE7EF00FF
:10141000E07858509307600463FFE706584CA967CB
:101420009387F7C363E9E7068D471CA023220402D4
:10143000239D018295240145DD220545E52AA1A8C9
:1014400003C5C18385456310B5029305F00F639C06
:10145000B7008D47BDB783C5C183E5D903C5C18337
:101460008545E30DB5F483D7A1831307007D636E33
:10147000F7008507239DF18269BF03C7C1838547B4
:10148000E319F7F8EF00A07C69B79147239D01822B
:10149000232204021CA03719004083594982EF100F
:1014A000905BF9473365F5029307007DC20993D934
:1014B00009011309098051053305F5026354350B01
:1014C000182089476310F70A2312090283C7C183D2
:1014D00081E7E925854761BD03C7C1838547E31BD4
:1014E000F7FEEF00C076FDB7B7170140938707807E
:1014F000984703C67183118B6302E602239D018224
:10150000A38BE18258509307100D63ECE702584813
:10151000F54763C4E702F9475CC825A003D7A18358
:101520009306007D63E6E6000507239DE182D9BFAF
:10153000239D018291471CA0F1B793076027E3CD5B
:10154000E7FC08485C48630FF50063D40700232AD2
:1015500004005C4863D4A7001385170048C84205FF
:10156000418121246FE07FC2852BEDBFB523054566
:101570007D200145C120FDB7373701408357C7C0E3
:10158000C207C183F99BC207C1832316F7C037077F
:1015900000408357C740C207C183F99BC207C1837C
:1015A0002316F740371700408357C780C207C1830F
:1015B000F99BC207C1832316F780C528130540068F
:1015C0009D3175B7373701408357C7C0C207C18304
:1015D000F99BC207C1832316F7C037070040835722
:1015E000C740C207C183F99BC207C1832316F740D6
:1015F000371700408357C780C207C183F99BC207D2
:10160000C1832316F780552013054006293983C767
:10161000C18393C7F7FF858B238EF18265BDB71712
:101620000140938707C01307002019E1D8CB8280BF
:1016300098CB8280B7170140938707C0130700102B
:1016400019E1D8CB828098CB8280EFE2DFB04111E4
:1016500085453545EFF08F8437140140130900208C
:101660008D49414A4C00130504C04AC24EC452C6BB
:10167000EFE01FCA930400104C00130504C01304CC
:1016800004C0648252C64EC4EFE09FC823282401E0
:1016900004C841016FE07FAFB7070140938707405F
:1016A00098431367470098C38280B7070140938728
:1016B000074098436D9B98C31147D8CB8280EFE2D7
:1016C0003FAB411137140140930700024C00130552
:1016D00004807C82231301002314010023150100E0
:1016E0002316010023170100EFE09FC2F5779387CF
:1016F00007C04C00130504C07C8202C6EFE05FC146
:10170000F1477C824C0093078004130504803EC699
:10171000EFE01FC0B7470240054723A2E780410121
:101720006FE05FA7EFE2DFA441118945014502C0E8
:1017300002C202C402C6EFE0BFDD91473EC0C1470E
:101740003EC40A8585473EC602C2EFE09FB51145FB
:10175000EFE05FBBB7E700E0238C074037070001ED
:1017600023A0E71041016FE0FFA28567938787BB45
:101770002A8763F3A7003E878566B73701409386C3
:1017800076BB2396D7C2239AE7C2239CE7C2239E47
:10179000E7C282803717014093070780D44337069A
:1017A0000030130707C0C19AD4C3D44393E6B600F0
:1017B000D4C394439206918294C39443D18E94C32C
:1017C00093060008D4CBD4437D761306F60F93F628
:1017D000F6F0D4C3D44393E60603D4C393060020A3
:1017E000D4CB1443C19A14C3144393E6360014C3F4
:1017F000854614CBD443F18ED4C3D44393E606304C
:10180000D4C393060040D4CB1C4393F7F7F01CC31A
:101810001C4393E707031CC389475CCB82803717BF
:10182000014093070780D44337060030130707C0F1
:10183000C19AD4C3D44393E6B600D4C3944392066A
:10184000918294C39443D18E94C393060008D4CB61
:10185000D4437D761306F60FF18ED4C3D44393E6BA
:101860000630D4C393060040D4CB144393F6F6F06D
:1018700014C3144393E6060314C3894614CBD4431C
:1018800093F6F6F0D4C3D44393E60603D4C3930689
:101890000020D4CB1C43C19B1CC31C4393E73700DF
:1018A0001CC385475CCB82803717014093070780B4
:1018B000D443130707C07D7693F6F6F0D4C3D44320
:1018C0001306F60F93E6060BD4C31443C19A14C350
:1018D000144393E6360014C3854654CBD443F18EAB
:1018E000D4C3D44393E60630D4C393060040D4CB8C
:1018F000144393F6F6F014C3144393E6060314C39B
:10190000894614CBD843B7060030419BD8C3D8438F
:1019100013673700D8C313070010D8CB98431207BA
:10192000118398C39843558F98C313070008D8CBE9
:1019300082803717014093070780D443130707C0FD
:101940003706003093F6F6F0D4C3D44393E6060B83
:10195000D4C31443C19A14C3144393E6360014C38A
:10196000854654CBD443C19AD4C3D44393E63600BE
:10197000D4C393060010D4CB94439206918294C3AF
:101980009443D18E94C39306000894CBD4437D76C0
:101990001306F60FF18ED4C3D44393E60630D4C3B6
:1019A00093060040D4CB1C4393F7F7F01CC31C43B1
:1019B00093E707031CC389475CCB8280371701403C
:1019C00093070780D4437D761306F60FF18ED4C3B8
:1019D000D4430566130606B0D18ED4C3130707C0DF
:1019E00014433706003093F6F6F014C3144393E61D
:1019F000060314C3894654CBD443C19AD4C3D443F9
:101A000093E63600D4C393060010D4CB94439206D9
:101A1000918294C39443D18E94C39306000894CBCF
:101A2000D44393F6F6F0D4C3D44393E60603D4C369
:101A300093060020D4CB1C43C19B1CC31C4393E7DB
:101A400037001CC385475CCB828037170140930762
:101A50000780D4437D761306F60FF18ED4C3D443AA
:101A60000566130606B0D18ED4C3130707C014430E
:101A700093F6F6F014C3144393E6060314C38946A1
:101A800054CBD44393F6F6F0D4C3D44393E6060381
:101A9000D4C393060020D4CB1443C19A14C3144377
:101AA00093E6360014C3854614CBD843B7060030FE
:101AB000419BD8C3D84313673700D8C3130700101E
:101AC000D8CB98431207118398C39843558F98C376
:101AD00013070008D8CB828037170140930707808F
:101AE000D44337060030130707C0C19AD4C3D44388
:101AF00093E63600D4C393060010D4CB94439206E9
:101B0000918294C39443D18E94C393060008D4CB9E
:101B1000D4437D761306F60F93F6F6F0D4C3D44380
:101B200093E60603D4C393060020D4CB1443C19A92
:101B300014C3144393E6360014C3854654CBD443F0
:101B4000F18ED4C3D44393E60630D4C39306004049
:101B5000D4CB1C4393F7F7F01CC31C4393E7070354
:101B60001CC389475CCB8280954763E8A702EFE2FC
:101B70002FE091679387075B0A053E951C4182879A
:101B800011396FE02FE16139EDBF393BDDBF5533CE
:101B9000CDBF2D35FDB7553DEDB78280EFE24FDD6E
:101BA00093878185A22315490504931404014204F7
:101BB0004184635589020145239107007537B74772
:101BC00002401307000723A2E780B707014093876D
:101BD000074023A60700114798C705A8C18013F541
:101BE000F40FA2A3513761DC8D476312F402B747AB
:101BF00002401307000723A2E780B707014093873D
:101C0000074023A407001147D8C76FE0AFD8854726
:101C10006316F400B74702404147F1BF114763160E
:101C2000E400B7470240414779BF09476309E40030
:101C3000631C2401374702402322F7807DBF3747CA
:101C400002402322F78051B78588C5F8BDBFEFE277
:101C50002FD293878185A2237D149314040142041B
:101C60004184635A040015471545BAA3F53DB747AB
:101C7000024005472DA8C18013F5F40FA2A3ED354E
:101C800005E0B74702401307000723A2E780B70724
:101C900001409387074023A407001147D8C715A028
:101CA0008D476312F402B74702401307000723A2CF
:101CB000E780B70701409387074023A60700114735
:101CC00098C76FE02FCD85476316F400B7470240F1
:101CD0004147F1BF11476316E400B747024041474F
:101CE0006DB709476308E4009547E302F4F8858877
:101CF000D9DCC1B7374702402322F78049BFEFE262
:101D00008FC5397185453545EFE05F998569138544
:101D100009808545EFE09F98370516008545130536
:101D20000504EFE0CFED371401408D44614993077E
:101D300000084C08130504803ECA26CC4ACEEFE0CA
:101D40002FDD85474C08130504C0FC824ACE26CC03
:101D5000EFE00FDC89474C08130504C0FC824ACE33
:101D600026CCEFE0EFDA930700104C08130504804F
:101D7000FC824ACE26CCEFE0AFD9930700204C0876
:101D800013050480FC824ACE26CCEFE06FD893077F
:101D900000404C0813050480FC82373401404ACED1
:101DA00026CCEFE0EFD6130504C002D802DA02DC3D
:101DB00002DE02C402C62318010002D002D202D4FD
:101DC00023160102EFE01F952800EFE07FC42C00EE
:101DD000130504C0938979BB4EC602C423080100D1
:101DE000EFE0FF9A0818EFE01FC4930700060C18F5
:101DF000130504C03ED802DA02DC02DEEFE0DF9F0A
:101E00000C18130504C0231B0102EFE09FA50C185A
:101E1000130504C0231B0102EFE0FFAD0C181305EE
:101E200004C0231B0102EFE03FB6130504C0A14527
:101E3000EFE05FC9130504C0A145EFE09FC913059A
:101E400004C0A145EFE05FCA130504C08145EFE07F
:101E50009FCA130504C08145EFE0DFCA8145130521
:101E600004C0EFE09FCB0810EFE01FBEB7071E00D5
:101E70003ED20C10B7070020130504C03ED402D098
:101E800023160102EFE0DFB6130504C001469305F7
:101E90000008EFE03FC0130504C001468545EFE0B0
:101EA0007FBF130504C0014693050004EFE09FBE09
:101EB000130504C0014693050002EFE0BFBD130502
:101EC00004C005468145EFE03FC6130504C0054642
:101ED0009145EFE07FC5130504C00546A145EFE03D
:101EE000BFC4130504C011468145EFE0BFC513050B
:101EF00004C011469145EFE0FFC41146130504C02C
:101F0000A145EFE03FC4130504C08545EFE0BFB530
:101F1000130504C08545EFE09FB6130504C0854551
:101F2000EFE0BFB88545130504C0EFE0DFB72161DE
:101F30006FE0AFA5EFE2CFA32A84116579718545E3
:101F4000250502C602C8EFE06FF585451145EFE0B3
:101F50000FCBB714014093070004FC820D49E14701
:101F60004C08138504C04ACC3ECEEFE06FBA93070D
:101F70000008FC824C089147138504C04ACC3ECE31
:101F8000EFE00FB922D037440140B7070C000C1026
:101F9000130504803ED402D223160102EFE01FBDD8
:101FA00005469305505213050480EFE09FC8930740
:101FB00050237C8689475C87680085473EC8EFE0F0
:101FC000EFD7854513050480EFE07FC545616FE0DD
:101FD0006F9C374701408357078093F70708E5DF79
:101FE0002312A7808280B70710000111FD1733F874
:101FF000B70093D84601F58F22CC13D4450113972F
:1020000037000E084AC84EC69357D6019359D501DA
:1020100013D9F5011374F47F93F8F87F06CE26CA1E
:10202000FD82B3E90901D98F9315350013183600E5
:10203000330714416304D918635EE01063880820F5
:102040009306F07F6306D45293068003854463C9E8
:10205000E602B7068000D58FFD4663C7E6429306C9
:102060000002998EB394D7003356E800B316D80017
:10207000D18CB336D00033D7E700D58CB389E94093
:10208000B3849540B3B79500B389F940B707800092
:1020900033F7F90063080724FD17B3F9F9006386E5
:1020A000092A4E85EF10A014130785FF930600023E
:1020B000B387E640B3D7F400B399E900B3E737013B
:1020C000B394E40063458732018F0507998E3396F8
:1020D000D400B3D9E4003336C00033663601B3967A
:1020E000D700B3E4C600B3D9E700014493F7740006
:1020F00081CF93F7F40011476388E700938744008A
:10210000B3B49700A699BE84B7078000B3F7F9006F
:102110006387072805049307F07F6300F41CB70763
:1021200080FFFD17B3F7F9001397D7018D80A6073D
:10213000458FB1831374F47F52047E095D8C336440
:102140002401F240A2856244D2444249B2493A8510
:1021500005618280630F071033878840631804305D
:1021600033E5B900630E05261305F7FF630E054836
:102170001303F07F630A67421307800385446346B5
:10218000A7022A877D466340E64413060002198EA3
:10219000B394C90033D5E5003396C500C98C3336F6
:1021A000C00033D7E900D18C998FB30498403338FD
:1021B0009800B389074146843689C9BD6359E01246
:1021C00063900810B3E60701638F06201306F7FF3C
:1021D000630506369306F07F630ED744130780032A
:1021E00085466346C7023287FD4663CBE638130651
:1021F0000002198EB396C7003355E8003316C800A5
:10220000C98E3336C00033D7E700D18EBA99B38771
:10221000B600B3B6D700BE84B699B7078000B3F74F
:10222000F900E9C305049307F07F6308F40AB707D0
:1022300080FFFD17B3F7F90013D714008588458F89
:102240009394F701D98C93D917004DB5B3E60701E4
:10225000638B06189306F7FF638106301306F07F41
:10226000630FC714130780038544E34BD7E0368719
:10227000E5B3130714001377E77F6315071CB3E872
:10228000B90033E707016310042A638B0838630C35
:10229000073AB384054133B795003386F940198E68
:1022A00037078000718F63010740B305B840B387DB
:1022B00037413338B800AE84B389074136893DB51C
:1022C0009306F07F630DD40E130680038546E3402A
:1022D000E6F4B7068000D58F01BF1304F07F814775
:1022E000014799BD13F77400E31507E089AA630756
:1022F000071033878840630D041A9306F07F638DBF
:10230000D82A1306800385466349E602B706800093
:10231000B3E9D900FD4663C6E63613060002198EFE
:10232000B396C90033D5E5003396C500C98E333660
:10233000C00033D7E900D18EBA973698B336D800AB
:10234000C284B389F6004684C9BD2685EF00306A91
:1023500013078501FD46E3DBE6D4930785FFB397BA
:10236000F40063498716B30487401387140063DBC6
:10237000E634851493060002B3D49700630BD700AC
:10238000930600043387E640B397E700B337F000C5
:10239000DD8C13F774000144E31D07D44DA093D7DF
:1023A00034001397D9019306F07F5D8F93D73900DE
:1023B000630FD400B207B1831374F47FB5BB0E056D
:1023C0009397D901135735005D8F93D739005D8FEF
:1023D00009D701491304F07FB70708000147A9BBDB
:1023E000C285BE89368993D735003A845DBFB70967
:1023F00080FFFD19198CB3F93701CDB9930614008C
:1024000013F7E67F6DE333E7B9006311041E630A37
:10241000072433E70701630D07242E98CE97B335C1
:10242000B800B389B7003707800033F7E900C284EA
:1024300019C7B70780FFFD17B3F9F9000544A68552
:10244000228755B7B384054133B795003386F940E9
:10245000198E37078000718F45EF33E7C400B289CA
:10246000E31F07C2014901448147F9B11305F07F19
:10247000638CA812130680038544E348E6D237062E
:102480008000B3E9C900FDB9930607FE13060002F8
:10249000B3D6D700630AC700130600043307E6402B
:1024A000B397E7003368F800B3340001D58CC9BE98
:1024B000B3E6B9006382061A1305F7FF3DCD930614
:1024C000F07F630BD70E130780038546E347A7E62B
:1024D0002A8789B5B70680FFFD16F58F198C1397EB
:1024E000D7018D83C1BD1307F07FE388E6DE338714
:1024F0000501CE97B335B700AE9705839394F701E6
:10250000D98C1D8B93D917003684E31407BE05BF01
:10251000B305B840B38737413338B800AE84B389C8
:1025200007413689ADBE639C08126315071801493F
:102530001304F07FB707080001B12E98CE97B3358A
:10254000B800B389B700B7078000B3F7F900C284B9
:102550000544E38907D80944D9B933880541B387CD
:10256000F940B3B50501C284B389B740054439BE0B
:102570000E050D811397D901498F93D7390081BD7D
:10258000130607FE9306000233D6C700630AD7007E
:10259000930600043387E640B397E7003368F800FA
:1025A000B3360001D18EA5B10E061397D7010D8267
:1025B000518F8D83368921BD0E061397D7010D8269
:1025C000518F8D8329B5130607FE1305000233D6FC
:1025D000C9006309A700130500043307E5403397DA
:1025E000E900D98DB334B000D18CC1B671D733E8CE
:1025F0000701E31008DE0E059397D9010D813367BB
:10260000F50093D73900E1B3B305B840B38737413C
:102610003338B800AE84B389074136890544BDB468
:10262000E30207E40E061397D7010D82518F8D83C5
:10263000368949B3931735008D831397D9015D8F80
:1026400093D7390069B3931735008D831397D90158
:102650005D8F93D73900B9BBC285BE8969B341DFAD
:102660008DBB0E061397D7010D82518F8D8399B3C1
:102670000E059397D9010D813367F50093D7390083
:1026800015BB130607FE9306000233D6C900630983
:10269000D700930600043387E6403397E900D98DCD
:1026A000B336B000D18E51B933E7C400B289E31814
:1026B00007D84DBB0E061397D7010D82518F8D831E
:1026C000368931B393060002998E014639B43971C7
:1026D00093D7450122DC26DA4ED662CC9394C5000E
:1026E00006DE4AD852D456D25AD05ECE93F7F77F40
:1026F0002A84328CB18093D9F501638607161308BA
:10270000F07F6382071B8E049355D501C58DB704F6
:102710008000CD8C131A3500938B17C0014B814A72
:1027200093D746011398C60093F7F77FE28E1354B0
:10273000C80013D9F601F5C71308F07F638E0707A9
:1027400093163400938717C09355DC01D58D338ED3
:102750007701B7068000A94733E4D500931E3C00FB
:10276000014513031E0063C6671933C82901C286D9
:102770000946634766079308FBFF854563EB151B16
:10278000630DC51285473688631FF506814781466C
:102790000147F2506254D207D58F7E08B3E7070194
:1027A000D2544259B259225A925A025BF24B624CAD
:1027B0003A85BE852161828033678401138EFB7F59
:1027C00063090710056733C8290113070780136BD6
:1027D0003B002946C2863383EB00634166430D45C7
:1027E0000546331666011377065305C3894763868A
:1027F000FA0C8D476388FA12568585472684D28E57
:102800003688E305F5F81A8E79A493770624C5EF88
:1028100013768608630F0610CA86A284768AAA8A6F
:10282000F1B7B3678401FDC3630A04322285EF0068
:10283000101C2A8E130755FFF547930E8EFF998FB4
:10284000B316D401B357FC0033E4D700B31EDC0148
:10285000338ECB41130EDEC0A947014513031E0082
:10286000E3D567F179A033EAA400630C0A0836C601
:102870006388042C2685EF009017B2462A8713063A
:1028800055FFF547130A87FF918FB3944401B3575F
:10289000F400DD8C331A44019307D0C0B38BE740BA
:1028A000014B814AB5BD33EAA40063160A04814492
:1028B000214B930BF07F894AA5B536889307F07FAB
:1028C00081460147F9B501489307F07FB706080034
:1028D000C9B5856793870780136B2B00A94633839F
:1028E000FB0063D0662B814EB9470945AD46638531
:1028F000D730CE86E5BD2A8A314B930BF07F8D4AC7
:1029000005B58144114B814B854A19BD5E8E136B11
:102910001B00A9470144814E054513031E00E3D661
:1029200067E5C1BF01489307F07FB706080001477C
:102930008DB5C1651387F5FF93570A0193D80E0132
:10294000337AEA00B3FEEE003307DA033386D703A7
:1029500013550701B3864803B2963695338F170394
:102960006373C5002E9FC1631386F3FFB375C50063
:10297000B376C400718F935F0401C205B302DA021B
:10298000BA9541813387D70213D60201338A4F03A8
:102990003A9A5296B387F7036373E6009E974169AC
:1029A0001304F9FF3377860093D30401B3F2820056
:1029B000E18C420733849E02169741823E963A95F7
:1029C000B382980293570401B38ED303F69296977D
:1029D000B388780263F3D701CA984169930EF9FF6F
:1029E000B3F2D701B37ED401C202C183C697338448
:1029F0009602B388D201B386D30293520401B38402
:102A00009F02B694A692B38E7F0263F3D200CA9E51
:102A1000C16FFD1FB3F6F2013374F401C2067A955B
:102A2000A29636963337E5003297AA98BA9733B50F
:102A3000A8003E95B336D6003336C700D18E33B7E3
:102A4000E70013D60201B337F5005D8FB2963697D3
:102A50007697939E9800935775012607B3EEBE00B4
:102A60003364F700B33ED00193D77801B3EEFE0094
:102A7000B70700012605E18FB3EEAE0089CF93D7EB
:102A80001E0093FE1E001317F401B3E7D701B3EE47
:102A9000E70005801A8E9307FE3F635AF00413F790
:102AA0007E0001CF13F7FE0091466308D70013871D
:102AB0004E00B33ED7017694BA8E37070001618F7E
:102AC00019C7B70700FFFD177D8C93070E4013074A
:102AD000E07F6343F70A93DE3E001317D401931699
:102AE00094003367D701B18293F7F77F5DB1054753
:102AF000C5E3130EEE413396CE013336C000331ECC
:102B0000C401B3DEEE003366C6013366D6019377A7
:102B10007600B355E40081CF9377F60011476388C0
:102B2000E7009307460033B6C700B2953E863705E7
:102B300080006D8D854781460147E31C05C465A073
:102B40007D2513065501F147B24613070502E3DA66
:102B5000C7D26115014AB314A4003DBB6285412D63
:102B600013075501F147130E0502E3D7E7CC6115B2
:102B7000814E3314AC00E9B99307F07F81460147D9
:102B800009B933C82901C2860144814E0945CDB631
:102B90001D8F93068003E3CBE6BEFD46E3DBE6F440
:102BA0008556B387F64093060002B357F4006308D6
:102BB000D700130EEE43331EC401B3EECE013336FD
:102BC000D0015D8E1377760081461DC39377F600A2
:102BD000114781456389E7009307460033B6C70074
:102BE000B335C0003E86939695001397D501B18208
:102BF0000D82518F814771BE3A8439B93D476317C1
:102C0000EB000148B7060800014761B62287AD47CF
:102C10000D45E9B993D74501B70610001387F6FFB4
:102C200093F7F77F1306E03F6D8FFD81635BF6003E
:102C30001306D0416359F600370500807D152E95A7
:102C4000828001458280130630431D8E7D48558F5A
:102C5000635DC80093063041B387F6403357F700F1
:102C60003305E040E5F13A8582809387D7BE33177C
:102C7000F7003355C500498FE5B7411106C622C498
:102C800026C20DCD1357F541B344A700998CAA87EE
:102C9000268513D4F701A12B9307E041898F29479B
:102CA00093F7F77F634BA7022D47098F33D7E400D3
:102CB00055053207B394A400318329A0014481470C
:102CC00001478144D2077E04D98FB240C18F22448C
:102CD0002685BE8592444101828055153397A40014
:102CE000320731838144F9BF7971935775014AD016
:102CF0004ECE06D69319950022D426D252CC56CA6F
:102D00005AC893F7F70F93D999001359F501F1CFEA
:102D10001307F00F6381E70E8E0937070004B3E94C
:102D2000E900938A17F80144014B93D77501139A70
:102D3000950093F7F70F135A9A0093D4F501C1C782
:102D40001307F00F6380E70C0E0A37070004336A9D
:102D5000EA00938717F80146BD4633479900B38AC6
:102D6000FA4063E9861A97260000938626860A04AD
:102D700036941C40B69782879307F00F8146B25075
:102D8000225413957701558D7E0792540259F249CA
:102D9000624AD24A424B598D456182808D47630E0B
:102DA000FB0085476313FB0E2A8781478146C1BF1D
:102DB0008D472685D289631AF60C01479307F00FD9
:102DC000B70640006DBF631C0A0813641400B547C2
:102DD00033479900E3E287FA97260000938606833B
:102DE0000A0436941C40B6978287639B09041144F9
:102DF000814A054B1DBF639009042144930AF00FDB
:102E0000094B25B763130A02136424007514AD46F9
:102E100033479900E3EB86F81726000013068682F5
:102E20000A0432941440B2968286136434009307E5
:102E3000F00F0D4615B73144930AF00F0D4BF5B561
:102E40004E852EC66D269307B5FFB399F9009307FB
:102E5000A0F8B245B38AA7400144014BF9B55285A9
:102E600079269307B5FF331AFA009307A0F8898FE4
:102E70000146DDB5938A1AF089474A85E310FBF2D3
:102E80002A879307F00F8146DDBD2A879387FA07CB
:102E90006351F00493F6790099C693F6F900114650
:102EA0006383C6009109B7060008B3F6D90081CA4A
:102EB000B70700F8FD17B3F9F90093870A089306DE
:102EC000E00FE3CBF6EA93966900A58293F7F70F3C
:102ED0007DB5054699C71D8EED4581478146E3C006
:102EE000C5EA9386EA09B396D900B336D000B3D7C2
:102EF000C900D58F93F6770099C693F6F70011466F
:102F00006383C6009107B7060004FD8ED5CA8547C6
:102F10008146B5B5C16613185A00FD1693550801D0
:102F2000B376D80063F8490733D6B902CE87FD1AC5
:102F300081493305D602B3F7B702C207B3E73701B9
:102F400063F8A700C2979308F6FF63F60707468663
:102F5000898F33D5B702B3F7B702B306D502C207DC
:102F600063F2D702B3850701B3B8F5001303F5FF89
:102F7000AE876398080063F6D5007915B38705011D
:102F800011A01A854206958F498EB337F000B369B8
:102F9000F600EDBD93D7190033D6B702FE0993D9D9
:102FA00009013305D60241BF26852A87FDBB0147AB
:102FB000B7064000E9B3E3FCA7F87916C29749BF0A
:102FC0009A0793D6970081475DBB268555BD13565A
:102FD0007501370780007D1793D675011376F60FBC
:102FE0001308F00FB378A7009357F5016D8F13F511
:102FF000F60FFD8163060603630A050105EE11E97C
:1030000029CB639F0804B9C92E858280094501EB4D
:1030100019E2E38A08FE638BB7020545A1E38280CB
:10302000639C0802E31BC5FE094575FBE397B7FEE9
:10303000014582807DD1E392B7FEE340C5FE634740
:10304000A600E36C17FD0145E3FBE8FC81CB3E8560
:103050008280E39408FC8280094582807D558280CD
:10306000E381B7FE5DBF411106C622C426C215CD5D
:103070001357F5413344A700198CAA87228593D4AE
:10308000F701B5221307E009B307A740130760094A
:10309000634AF70221476308E50861153317A40066
:1030A0002607258313F5F70F21A081440145014729
:1030B000B24022445E059397F401598D92445D8D90
:1030C00041018280130790096343F7041547930673
:1030D000B5FF6304E5003314D400B70600FCFD1609
:1030E000137674003377D40011CE3D881146630BFC
:1030F000C400110737060004798E09C69307F0094A
:10310000758F898F1A07258313F5F70F55B71307A6
:10311000B50195463317E400898E3354D400333714
:10312000E000598C5DBF2604135794001305600915
:1031300041B70DCD411122C406C62A844D289307FC
:10314000E009898F130760096347F7022147630A83
:10315000E50861153317A4002607258313F5F70F3B
:10316000B24022445E05598D4101828001450147EC
:103170005E05598D8280130790096348F70415474F
:103180009306B5FF6304E5003314D400B70600FCD2
:10319000FD16137674003377D40011CE3D881146A6
:1031A000630BC400110737060004798E09C6930724
:1031B000F009758F898FB24022441A0713F5F70F73
:1031C00025835E05598D410182801307B50195461F
:1031D0003317E400898E3337E0003354D400598C20
:1031E00075B72604135794001305600995BFC1678E
:1031F0006375F5029337051093C717008E07130701
:1032000000021D8F3355F5009717000093878746FE
:10321000AA9788233305A7408280B7070001637F00
:10322000F500C1473355F500971700009387874491
:10323000AA97882341473305A7408280E147335549
:10324000F500971700009387E742AA978823214744
:103250003305A7408280411122C403A4C1801C5CB5
:1032600006C6B1E76145E52008DC09ED97160000C8
:103270009386465001469305E00417150000130598
:10328000E5508528B737CDAB9387E7301CC1B7171A
:103290006DE6938747235CC1B7E705009387C7EEC8
:1032A0001CC5AD475EA50547814718C95CC90C5CC4
:1032B000B786954C37F651589849DC499386D6F233
:1032C0001306D6423306C702B2402244B387D70260
:1032D0003305D702B2973337D702BA9713071500D1
:1032E0003335A7003E95C8C998C906050581410137
:1032F0008280411183A7C180328806C6AA882E87A2
:10330000C8473686971700009387874F63170800D2
:10331000971700009387874F3E88C6869715000051
:103320009385054F1920EF00E072397132D436D6FB
:103330002E863410AA8503A5C18006CE3AD83EDA7F
:1033400042DC46DE36C6AD2CF24021618280AA8581
:1033500003A5C180E5A8C5C183A7C5FF011122CC83
:1033600006CE1384C5FF63D307003E942AC6EF0040
:103370001040138741841C43324589EB232204000B
:1033800000C36244F24005616F00D03E637DF400EB
:103390001040B306C4006396D7009443DC43B29652
:1033A00014C05CC0F1BF3E87DC4399C3E37DF4FEEB
:1033B00014433306D700631F86001040B29614C32F
:1033C0003306D700E39FC7FA9043DC43B29614C399
:1033D0005CC345BF6375C400B1471CC15DB71040F5
:1033E000B306C4006396D7009443DC43B29614C07E
:1033F0005CC040C379B7828041114AC013890184FF
:103400008327090022C426C206C6AA842E8489E71F
:103410008145BD212320A900A285268595217D59BE
:10342000631A25017D54B240228522449244024908
:1034300041018280130435007198E30685FEB305CF
:10344000A44026853529E31025FFE9BF011126CACE
:1034500093843500F1984AC806CE22CC4EC6A1040A
:10346000B1472A8963F4F406B14463E3B4064A859C
:10347000EF00F02F9389418483A709003E8425E45F
:10348000A6854A85953FFD572A846316F50C03A44B
:103490000900A287DDE78329040081454A85A299B6
:1034A000C5266393A90A1C408D049D8CF198A10444
:1034B000B14763F3F400B144A6854A85353FFD5713
:1034C0006304F5081C40A6971CC03DA8E3DF04F880
:1034D000B1472320F9000145F2406244D2444249F9
:1034E000B249056182801440858E63C906042D4768
:1034F000637ED70204C0330794006397870223A03A
:10350000E9005C4014C35CC34A85EF00B026130594
:10351000B4009307440061993307F540E30EF5FAD0
:103520003A94898F1CC04DBFD8C3E1BF5840639502
:10353000870023A0E900C9BFD8C3F9B7A2874040DC
:103540003DBF3E84DC43B9B7B1472320F9004A852B
:10355000EF00502249B704C145BF1C46FD171CC6E9
:1035600063D90700184E63C5E700A9476393F500C8
:1035700025AE1C422E851387170018C28CA38280AB
:10358000011122CC26CA4AC84EC652C406CE2A8988
:10359000AE893284B304D6007D5A63149400014589
:1035A00001A80C204E864A854D3F0504E31745FFD0
:1035B000F2406244D2444249B249224A05618280C3
:1035C000357122CD26CB4AC94EC706CF52C556C348
:1035D0005AC1DEDEE2DCE6DAAA892E843289B684BC
:1035E00001C51C4D91E32127971700009387872A77
:1035F0006318F40403A449007C50858B81EB5E249E
:1036000093F7072081E7284CEF00F0055E24A18B9B
:1036100099C31C48A5E3A2854E85A92621CD7C50DF
:10362000858BA9C37D55FA406A44DA444A49BA49B0
:103630002A4A9A4A0A4BF65B665CD65C0D61828028
:1036400097170000938707236315F40003A48900EC
:1036500065B7971700009387E71FE31FF4F803A4EB
:10366000C90059BF5E2493F70720CDFF284CEF0017
:10367000A07F4DBF93070002A304F102930700034C
:1036800002D22305F10226C6930B5002971A0000BE
:10369000938A0A1B054C294BCA849C2099C3639AC0
:1036A0007709B38C2441638D2401E6864A86A2857E
:1036B0004E85F935FD57630AF5189257E6973ED2C5
:1036C0009C2063840718FD571389140002C802CE9A
:1036D0003ECA02CCA309010482D4834509001546E1
:1036E0005685EF005007C2479304190029E513F7E8
:1036F000070109C713070002A309E10413F78700B4
:1037000009C71307B002A309E104834609001307A0
:10371000A002638AE602F247CA84814625469820C1
:1037200093851400130707FD6373E6068DC63ECE2E
:103730001DA085049DB7330555413315AC00C98FD5
:103740003EC8268959BF324793064700184336C6FC
:10375000634807023ACE98209307E002631CF704FF
:1037600098309307A002631AF702B24789041387BF
:1037700047009C433AC663D30700FD573ECA1DA8C5
:103780003307E04093E727003ACE3EC8E9B7B38756
:103790006703AE848546BA9759B7850402CA814645
:1037A00081472546982093851400130707FD63740D
:1037B000E606E9F68C200D46171500001305C5082E
:1037C000EF00607911CD971700009387E7071D8DF3
:1037D000C247130700043317A700D98F85043EC8DA
:1037E0008C2019461715000013054506138914008F
:1037F0002304B102EF0020762DC99307000095E75E
:103800004247B2471377071009CF91073EC6925738
:10381000D2973ED251B5B3876703AE848546BA9737
:1038200051B79D07E19BA107D5B778009706000027
:10383000938646D522860C084E8597000000E70047
:103840000000FD572A8AE314F5FC7C50858B99E72C
:103850005E2493F7072099E3284C39255E2493F7DB
:103860000704E39107DC12557DBB78009706000042
:10387000938646D122860C084E85EF001001D1B701
:10388000411122C42A842E8523AA018406C6EFD0C2
:103890002FC8FD576316F50083A7418591C31CC04F
:1038A000B240224441018280011122CC26CA4AC87A
:1038B00006CE4EC6AA842E89328401C51C4D91E3E2
:1038C0003D21971700009387E7FC6317F402C0407F
:1038D0001C4C1CC45E24A18B99C31C4895EFA28587
:1038E0002685492015C97D59F2406244D244B24927
:1038F0004A8542490561828097170000938787F7C0
:103900006314F4008044E9B797170000938787F4A5
:10391000E310F4FCC0446DBF1C4808409379F90FD4
:103920001379F90F1D8D5C486346F500A285268545
:10393000A52455F91C440505FD171CC41C4013871C
:10394000170018C0238037015C486388A7005E24F5
:10395000858BD9DBA947E319F9F8A28526852D2C9B
:1039600041D551B7411122C426C24AC006C683A41C
:10397000C1802A892E8489C49C4C99E32685852E92
:1039800097170000938707F16313F402C040831771
:10399000C40013F787002DE713F707010DEB254748
:1039A0002320E90093E707045EA47D5579A09717CB
:1039B0000000938727EC6314F4008044C9BF971775
:1039C0000000938727E9E314F4FCC044C9B7918B46
:1039D00085C74C5891C9930744046385F5004A850F
:1039E000EFF07F97232A04025E242322040093F73A
:1039F000B7FD5EA41C481CC05E2493E787005EA44C
:103A00001C4899EB5E241307002093F70728638571
:103A1000E700A2854A8575218317C40013F71700B4
:103A20001DC35848232404003307E04018CC18482D
:103A3000014501E713F7070835F7B24022449244E5
:103A400002494101828013F72700814611E354485F
:103A500014C4F1BF4111194506C6EF00B010054569
:103A6000EF0090328397C500011122CC26CA06CE02
:103A70004AC84EC613F78700AA842E8461E7D8414E
:103A80006345E000B8416357E008585441C7B1832B
:103A900003A90400858B23A004000C50B1CB70480F
:103AA0005E24918B99C75C401D8E5C5899C33C4045
:103AB0001D8E5C540C50814626858297FD57630D00
:103AC000F5041C480567232204001CC05E24F98FFE
:103AD00091C368C84C5823A024018DCD930744049A
:103AE0006385F5002685EFF01F87232A04021DA0B9
:103AF0000146854626850297FD572A86E312F5FA88
:103B00009C40D9DF75476385E70059476395E70611
:103B100023A024010145B5A098408317C40001CF1C
:103B2000F5466305D700D9466319D7041C482322FC
:103B300004001CC045B71848B1832322040018C0F4
:103B4000858B79B783A90501E38609FC03A90500E4
:103B50008D8B23A0350133093941014791E3D849C1
:103B600018C4E35920FB1C540C50CA864E86268587
:103B70008297634FA0008317C40093E707045EA4F5
:103B80007D55F2406244D2444249B2490561828087
:103B9000AA993309A940F1B79C49411106C622C42C
:103BA00026C281EB8144B2402244268592444101E1
:103BB0008280AA842E8401C51C4D91E30D2A97179B
:103BC0000000938727CD631CF402C0408317C40014
:103BD000F1DB7850058B11E793F7072099E3284C28
:103BE00059242685A285BD3D7C50AA84858BC5FFBE
:103BF0005E2493F70720C5FB284CBD246DB79717AB
:103C00000000938727C76314F4008044C1B7971757
:103C10000000938727C4E31BF4FAC04445BF411159
:103C200022C406C62A844EA572A52320050023229D
:103C30000500232405002322050623280500232A46
:103C40000500232C0500214681451305C505EFC05D
:103C50002FD597070000938747745CD09707000023
:103C6000938767761CD4970700009387477A5CD4C4
:103C7000970700009387A77CB24000D01CD822444D
:103C80004101828097050000938545F185AA411185
:103C900026C2930780069384F5FFB384F4024AC0DA
:103CA0002E8922C406C693854407EFF02FFA2A8492
:103CB00001CD2320050023222501310508C41386E8
:103CC00084068145EFC0CFCDB24022852244924484
:103CD0000249410182801385C18471A21385C18488
:103CE00061A21385018541A213850185B5AA411101
:103CF00022C406C62A84F5371C4C89C72244B24028
:103D00004101DDB797070000938707F81CD42324EF
:103D10000404232604042328040483A74182639413
:103D2000870085471CCC22853D2048C02285252060
:103D300008C422850D2048C4484001469145C53538
:103D400008440546A545E13D48440946C945C13DED
:103D500085471CCC65B7411126C24AC006C622C49D
:103D60002A89953F83A441829C4C99E3268541375B
:103D7000938484048044DC40FD1763D607009C4094
:103D8000BDC38440C5BF0317C40039EBC1778507A5
:103D90005CC41305840523220406E92081372146EB
:103DA00023200400232404002322040023280400E9
:103DB000232A0400232C040081451305C405EFC009
:103DC0002FBE232A0402232C0402232404042326C6
:103DD0000404B24022852244924402494101828077
:103DE0001304840651BF91454A85553588C02A84FD
:103DF00049F9ED35B1472320F900E1BF797122D4AB
:103E00004AD04ECE52CC5AC85EC606D626D256CA24
:103E10002A892E8A130485048149054BFD5B0444DD
:103E2000832A4400FD1A63D00A0200406DF8B250A4
:103E3000225492540259624AD24A424BB24B4E85A6
:103E4000F24945618280DE24637BFB008397E400B6
:103E500063877701A6854A85029AB3E9A90093840E
:103E60008406C9B78280828082805971A2D42E8450
:103E70008395E500A6D2CAD086D6B284368963D2AD
:103E800005025E2493F707088DEB13070040B65038
:103E900026542320F90098C00659965401456561BF
:103EA00082803000FD23E34E05FC3247BD67F98F69
:103EB0007977BA9793B71700C9BF814713070004F2
:103EC000F9B7DE25797122D406D626D24AD04ECE55
:103ED000898B2E8491CF930774041CC01CC885471E
:103EE0005CC8B250225492540259F2494561828012
:103EF00074003000AA84953FA2492A892685CE8580
:103F0000EFF0CFD419E98317C40013F7072071FB32
:103F1000F19B93E727005EA47DBF9707000093877E
:103F2000A7D69CD45E2408C008C893E707085EA4FF
:103F3000B247232A340199CB8315E4002685B52B9B
:103F400011C55E24F19B93E717005EA45E2433E560
:103F500027014AA479B793F5F50F2A966314C50093
:103F6000014582801C21E38EB7FE0505C5BF138580
:103F70008184D5BD13858184C5BD797156CA9C499C
:103F8000BA8A984522D44AD04ECE52CC06D626D2F2
:103F90005AC85EC6AA892E843289368A63D3E7005E
:103FA000BA872320F9000347340401C7850723207B
:103FB000F9001C4093F7070291C78327090089077E
:103FC0002320F9000440998891E8130B9401FD5BCC
:103FD0005C4403270900998F63CCF40483473404BD
:103FE000B336F0001C4093F70702A5EB1306340428
:103FF000D2854E85829AFD576303F5041C40114714
:104000008144998B6399E7004444832709009D8C80
:1040100063D3040081441C4418486354F700998F0B
:10402000BE94014969047D5B63982405014509A894
:1040300085465A86D2854E85829A631E75017D55C6
:10404000B250225492540259F249624AD24A424B27
:10405000B24B456182808504A5BF3307D4001306A7
:104060000003A301C7040347540493871600A297D3
:104070008906A381E7049DBF85462286D2854E85A9
:10408000829AE30E65FB050945B7797122D44AD0BF
:104090004ECE52CC06D626D256CA5AC803C885017F
:1040A000930780072A892E84B289368A63E2070340
:1040B000930720069386350463E10703630B081C0E
:1040C00093078005170600001306C67E6307F814E1
:1040D000930424042301040515A89307D8F993F742
:1040E000F70F5546E366F6FE170600001306067F37
:1040F0008A07B2979C43B29782871C439384250416
:10410000938647009C4314C32381F504854765A229
:1041100090411C43137506089385470029C19C43B1
:104120000CC3584063DE07129305D002A301B40408
:1041300018C4635E0702B307F040170600001306B9
:1041400066772948B68433F70703FD14329718239E
:1041500098A03E87B3D70703E37707FF85A09C436A
:10416000137506040CC355DDC207C1875DBF6D9A88
:1041700010C0D1B790411C431375060893854700C2
:1041800001C50CC39C4331A0137606040CC37DDA31
:104190009E231307F006170600001306A671631F7F
:1041A000E80A2148A3010404584018C4E34C07F866
:1041B0000C40ED990CC0D9F7B68449F7A147631EAE
:1041C000F8001C40858B91CB58401C4863C7E70022
:1041D00093070003A38FF4FEFD14858E14C8528745
:1041E000CE867000A2854A85493BFD5A6319550D5C
:1041F0007D55B250225492540259F249624AD24A31
:10420000424B456182809C4193E707029CC11308A1
:104210008007170600001306266BA30204050C4056
:104220001C4313F80508138547006305080008C3FD
:104230009C4339A013F8050408C3E30B08FE9E2332
:1042400013F7150001C793E505020CC099C3414857
:1042500091BF18401377F7FD18C0D5BF294899B70B
:10426000170600001306066529483DBF90411C4310
:10427000CC4913780608138547006306080008C375
:104280009C438CC339A008C3137606049C4375DA9B
:104290008EA323280400B68499B71C43D0418145DE
:1042A0009386470014C384432685EFF0DFCA19C103
:1042B000058D48C05C401CC8A30104040DB7144818
:1042C0002686CE854A85029AE30455F31C40898BE5
:1042D0008DE7B2474844E35EF5F03E8519BF854659
:1042E0005686CE854A85029AE30465F185045C44CE
:1042F0003247998FE3C5F4FEE9BF8144930A9401E4
:104300007D5BF5B7011122CC06CEFD472A8463F907
:10431000B700D9471CC17D55F240624405618280D7
:104320007C412E8691C713972500BA97984319EBC5
:10433000228532C68520AA85228562443246F24013
:1043400005612DA08546630DD700FD566316D70085
:10435000D9471CC10545C9B723A007002E85029780
:1043600001455DBFAA8503A5C18069BF411122C473
:104370002A842E85B28523AA018406C6E522FD572C
:104380006316F50083A7418591C31CC0B240224447
:104390004101828065AA411122C42E848395E500E3
:1043A00006C6A522634905007C48AA977CC8B2408E
:1043B0002244410182805E247D777D17F98F5EA4BF
:1043C000FDB7DE25011122CC26CA4AC84EC606CE4C
:1043D00093F70710AA842E843289B68991C78395F2
:1043E000E50089460146ED285E247D777D17F98F2B
:1043F0008315E4005EA46244F240CE864A86B24948
:1044000042492685D244056125A8411122C42E8443
:104410008395E50006C6E9207D575E24631AE50012
:104420007D777D17F98F5EA4B240224441018280DE
:104430000567D98F5EA468C8C5BF8395E5003DA018
:10444000411122C42A842E85B285368623AA01848E
:1044500006C6EFC05F88FD576316F50083A7418548
:1044600091C31CC0B240224441018280411122C448
:104470002A842E8523AA018406C66D28FD5763165B
:10448000F50083A7418591C31CC0B240224441017D
:104490008280411122C42A842E85B28523AA0184F8
:1044A00006C67928FD576316F50083A7418591C399
:1044B0001CC0B240224441018280411122C42A849E
:1044C0002E8523AA018406C64128FD576316F500F0
:1044D00083A7418591C31CC0B24022444101828020
:1044E000411122C42A842E85B285368623AA0184EE
:1044F00006C6BD28FD576316F50083A7418591C305
:104500001CC0B240224441018280411122C42A844D
:104510002E85B285368623AA018406C68520FD57DE
:104520006316F50083A7418591C31CC0B2402244A5
:10453000410182809307800523AAF1847D55828002
:104540009307800523AAF1847D5582809307800517
:1045500023AAF1847D5582809307800523AAF184E4
:10456000014582809307800523AAF1847D558280CE
:104570009307800523AAF1847D55828093078005E7
:1045800023AAF1847D55828001A0000068150000F7
:10459000DC12000082130000E81400006C1500001B
:1045A000641500006815000078150000C4150000AF
:1045B000801B0000861B00008A1B00008E1B000071
:1045C000921B0000961B00004CE9FFFFB0E7FFFFC5
:1045D000E2E7FFFFE8E7FFFFE2E7FFFFF2E7FFFFA9
:1045E000E2E7FFFFE8E7FFFFB0E7FFFFB0E7FFFF0D
:1045F000F2E7FFFFE8E7FFFFB0E8FFFFB0E8FFFFEB
:10460000B0E8FFFFF2E7FFFF70E7FFFF70E7FFFF93
:10461000A2E7FFFFA0E9FFFFA2E7FFFFB2E7FFFF6E
:10462000A2E7FFFFA0E9FFFF70E7FFFF70E7FFFFD2
:10463000B2E7FFFFA0E9FFFF70E8FFFF70E8FFFFB0
:104640008AE9FFFF6AE7FFFF6EE9FFFF6AE7FFFF06
:104650008AE9FFFF38E7FFFF38E7FFFF6EE9FFFF5A
:104660008AE9FFFF34E8FFFF34E8FFFF34E8FFFF8B
:104670000001020203030303040404040404040409
:1046800005050505050505050505050505050505DA
:1046900006060606060606060606060606060606BA
:1046A00006060606060606060606060606060606AA
:1046B000070707070707070707070707070707078A
:1046C000070707070707070707070707070707077A
:1046D000070707070707070707070707070707076A
:1046E000070707070707070707070707070707075A
:1046F000080808080808080808080808080808083A
:104700000808080808080808080808080808080829
:104710000808080808080808080808080808080819
:104720000808080808080808080808080808080809
:1047300008080808080808080808080808080808F9
:1047400008080808080808080808080808080808E9
:1047500008080808080808080808080808080808D9
:1047600008080808080808080808080808080808C9
:104770005245454E54206D616C6C6F6320737563B8
:1047800063656564656400002F486F73742F686FFC
:104790006D652F797979792F576F726B2F726973E5
:1047A00063762D6E6F6E652D656C662D6763632D68
:1047B00031322E322E302D312F6C696E75782D6985
:1047C0006133322F736F75726365732F6E65776C0B
:1047D00069622D342E322E302E3230323131323366
:1047E000312F6E65776C69622F6C6962632F737409
:1047F000646C69622F72616E642E63002C20667592
:104800006E6374696F6E3A20000000006173736517
:104810007274696F6E2022257322206661696C654F
:10482000643A2066696C6520222573222C206C690D
:104830006E65202564257325730A0000232D302B17
:1048400020000000686C4C00656667454647000024
:104850000000000000000000000000000000000058
:104860000000000000000000000000000000000048
:104870000000000000000000000000000000000038
:104880000000000000000000000000000000000028
:104890000000000000000000000000000000000018
:1048A0000000000000000000000000000000000008
:1048B0003031323334353637383941424344454656
:1048C0000000000030313233343536373839616218
:1048D000636465660000000022F8FFFF38F8FFFF00
:1048E000F8F7FFFFF8F7FFFFF8F7FFFFF8F7FFFF14
:1048F00038F8FFFFF8F7FFFFF8F7FFFFF8F7FFFFC3
:10490000F8F7FFFF94F9FFFF9CF8FFFF2EF9FFFF78
:10491000F8F7FFFFF8F7FFFFC2F9FFFFF8F7FFFF17
:104920009CF8FFFFF8F7FFFFF8F7FFFF36F9FFFFEE
:104930000000000001020304010203040607080945
:10494000000000009048000070480000504800003F
:104950000000000000000000000000000000000057
:104960000000000000000000000000000000000047
:104970000000000000000000000000000000000037
:104980000000000000000000000000000000000027
:104990000000000000000000000000000000000017
:1049A00002040608F00000200044950810000020D2
:1049B0000000000000E02540000000000000694009
:0849C0009A99994010000020B3
:00000001FF
